{
  "contractName": "BroadcastMessages",
  "abi": [
    {
      "anonymous": false,
      "inputs": [
        {
          "indexed": true,
          "name": "userAddress",
          "type": "address"
        },
        {
          "indexed": false,
          "name": "signedMessage",
          "type": "bytes"
        },
        {
          "indexed": false,
          "name": "timestamp",
          "type": "uint256"
        }
      ],
      "name": "Publish",
      "type": "event"
    },
    {
      "constant": false,
      "inputs": [
        {
          "name": "userAddress",
          "type": "address"
        },
        {
          "name": "signedMessage",
          "type": "bytes"
        }
      ],
      "name": "publish",
      "outputs": [],
      "payable": false,
      "stateMutability": "nonpayable",
      "type": "function"
    }
  ],
  "bytecode": "0x6060604052341561000f57600080fd5b6101ad8061001e6000396000f300606060405260043610610041576000357c0100000000000000000000000000000000000000000000000000000000900463ffffffff168063a45b27b314610046575b600080fd5b341561005157600080fd5b6100c0600480803573ffffffffffffffffffffffffffffffffffffffff1690602001909190803590602001908201803590602001908080601f016020809104026020016040519081016040528093929190818152602001838380828437820191505050505050919050506100c2565b005b8173ffffffffffffffffffffffffffffffffffffffff167ffd98446fd20fd805a2fad6920c7d6f040068b3dcb79a8768a1b55ffa0dd200cf82426040518080602001838152602001828103825284818151815260200191508051906020019080838360005b83811015610142578082015181840152602081019050610127565b50505050905090810190601f16801561016f5780820380516001836020036101000a031916815260200191505b50935050505060405180910390a250505600a165627a7a7230582052eb7541be4e0ef3f9b409fedbdf7993ef6a356f3993cffbc8fdff7c0eb6e31a0029",
  "source": "pragma solidity ^0.4.18;\n\ncontract BroadcastMessages {\n  event Publish(address indexed userAddress, bytes signedMessage, uint timestamp);\n\n  function publish(address userAddress, bytes signedMessage) public {\n    Publish(userAddress, signedMessage, now);\n  }\n}\n",
  "sourcePath": "/Users/howard/src/trustmesh/contracts/BroadcastMessages.sol",
  "compiler": {
    "name": "solc",
    "version": "0.4.19+commit.c4cbbb05.Emscripten.clang"
  },
  "schemaVersion": "2.0.0",
  "updatedAt": "2018-03-03T13:59:38.427Z"
}