{
  "contractName": "Identities",
  "abi": [
    {
      "anonymous": false,
      "inputs": [
        {
          "indexed": true,
          "name": "userAddress",
          "type": "address"
        },
        {
          "indexed": false,
          "name": "publicKey",
          "type": "bytes32"
        }
      ],
      "name": "RegisterOK",
      "type": "event"
    },
    {
      "constant": false,
      "inputs": [
        {
          "name": "publicKey",
          "type": "bytes32"
        }
      ],
      "name": "register",
      "outputs": [],
      "payable": false,
      "stateMutability": "nonpayable",
      "type": "function"
    },
    {
      "constant": true,
      "inputs": [
        {
          "name": "userAddress",
          "type": "address"
        }
      ],
      "name": "getIdentity",
      "outputs": [
        {
          "name": "publicKey",
          "type": "bytes32"
        },
        {
          "name": "blockNumber",
          "type": "uint256"
        }
      ],
      "payable": false,
      "stateMutability": "view",
      "type": "function"
    }
  ],
  "bytecode": "0x6060604052341561000f57600080fd5b61025d8061001e6000396000f30060606040526004361061004c576000357c0100000000000000000000000000000000000000000000000000000000900463ffffffff1680632fea7b8114610051578063e1fa8e84146100ad575b600080fd5b341561005c57600080fd5b610088600480803573ffffffffffffffffffffffffffffffffffffffff169060200190919050506100d4565b6040518083600019166000191681526020018281526020019250505060405180910390f35b34156100b857600080fd5b6100d2600480803560001916906020019091905050610164565b005b6000806000808473ffffffffffffffffffffffffffffffffffffffff1673ffffffffffffffffffffffffffffffffffffffff1681526020019081526020016000206000015491506000808473ffffffffffffffffffffffffffffffffffffffff1673ffffffffffffffffffffffffffffffffffffffff168152602001908152602001600020600101549050915091565b604080519081016040528082600019168152602001438152506000803373ffffffffffffffffffffffffffffffffffffffff1673ffffffffffffffffffffffffffffffffffffffff16815260200190815260200160002060008201518160000190600019169055602082015181600101559050503373ffffffffffffffffffffffffffffffffffffffff167fb6f42c44ee1a8496bc045823fdce207904450f9a23245e1e29ac155f9d6c3ad88260405180826000191660001916815260200191505060405180910390a2505600a165627a7a72305820652ef7913823a59159f7aecd45127ccbdfa640ee6bdf5a1587218d8c7205a0790029",
  "source": "pragma solidity ^0.4.18;\n\ncontract Identities {\n  struct Account {\n    bytes32 publicKey;\n    uint blockNumber;\n  }\n\n  mapping (address => Account) accounts;\n\n  event RegisterOK(address indexed userAddress, bytes32 publicKey);\n\n  function register(bytes32 publicKey) public {\n    accounts[msg.sender] = Account(publicKey, block.number);\n    RegisterOK(msg.sender, publicKey);\n  }\n\n  function getIdentity(address userAddress)\n    constant\n    public\n    returns (bytes32 publicKey, uint blockNumber)\n  {\n    publicKey = accounts[userAddress].publicKey;\n    blockNumber = accounts[userAddress].blockNumber;\n  }\n}\n",
  "sourcePath": "/Users/howard/src/trustmesh/contracts/Identities.sol",
  "compiler": {
    "name": "solc",
    "version": "0.4.19+commit.c4cbbb05.Emscripten.clang"
  },
  "schemaVersion": "2.0.0",
  "updatedAt": "2018-03-03T13:58:39.777Z"
}