{
  "contractName": "Messages",
  "abi": [
    {
      "anonymous": false,
      "inputs": [
        {
          "indexed": false,
          "name": "message",
          "type": "bytes"
        },
        {
          "indexed": false,
          "name": "timestamp",
          "type": "uint256"
        }
      ],
      "name": "Publish",
      "type": "event"
    },
    {
      "constant": false,
      "inputs": [
        {
          "name": "message",
          "type": "bytes"
        }
      ],
      "name": "publish",
      "outputs": [],
      "payable": false,
      "stateMutability": "nonpayable",
      "type": "function"
    }
  ],
  "bytecode": "0x6060604052341561000f57600080fd5b6101768061001e6000396000f300606060405260043610610041576000357c0100000000000000000000000000000000000000000000000000000000900463ffffffff1680637fd2834614610046575b600080fd5b341561005157600080fd5b6100a1600480803590602001908201803590602001908080601f016020809104026020016040519081016040528093929190818152602001838380828437820191505050505050919050506100a3565b005b7f37febb101ed654b4ac9b521db185a42ac259f2677ff05de62c7fa6e2e05ea60981426040518080602001838152602001828103825284818151815260200191508051906020019080838360005b8381101561010c5780820151818401526020810190506100f1565b50505050905090810190601f1680156101395780820380516001836020036101000a031916815260200191505b50935050505060405180910390a1505600a165627a7a7230582044592e8fc5e39086a02630d652f5d07a53dfc0812c5ec508fcc7a946ded0e7870029",
  "source": "pragma solidity ^0.4.18;\n\ncontract Messages {\n  event Publish(bytes message, uint timestamp);\n\n  function publish(bytes message) public {\n    Publish(message, now);\n  }\n}\n",
  "sourcePath": "/Users/howard/src/trustmesh/contracts/Messages.sol",
  "compiler": {
    "name": "solc",
    "version": "0.4.19+commit.c4cbbb05.Emscripten.clang"
  },
  "schemaVersion": "2.0.0",
  "updatedAt": "2018-03-03T13:58:39.781Z"
}