{
  "contractName": "SocialProofs",
  "abi": [
    {
      "anonymous": false,
      "inputs": [
        {
          "indexed": true,
          "name": "userAddress",
          "type": "address"
        },
        {
          "indexed": true,
          "name": "platformName",
          "type": "bytes32"
        },
        {
          "indexed": false,
          "name": "data",
          "type": "bytes"
        }
      ],
      "name": "ProofEvent",
      "type": "event"
    },
    {
      "constant": false,
      "inputs": [
        {
          "name": "userAddress",
          "type": "address"
        },
        {
          "name": "platformName",
          "type": "bytes32"
        },
        {
          "name": "data",
          "type": "bytes"
        }
      ],
      "name": "uploadProof",
      "outputs": [],
      "payable": false,
      "stateMutability": "nonpayable",
      "type": "function"
    }
  ],
  "bytecode": "0x6060604052341561000f57600080fd5b6101b88061001e6000396000f300606060405260043610610041576000357c0100000000000000000000000000000000000000000000000000000000900463ffffffff168063d53ca96714610046575b600080fd5b341561005157600080fd5b6100cd600480803573ffffffffffffffffffffffffffffffffffffffff169060200190919080356000191690602001909190803590602001908201803590602001908080601f016020809104026020016040519081016040528093929190818152602001838380828437820191505050505050919050506100cf565b005b81600019168373ffffffffffffffffffffffffffffffffffffffff167fbc62015fd0e2bdea43a93066e258d8f1c309455bd245ef9f15a3c08429162d52836040518080602001828103825283818151815260200191508051906020019080838360005b8381101561014d578082015181840152602081019050610132565b50505050905090810190601f16801561017a5780820380516001836020036101000a031916815260200191505b509250505060405180910390a35050505600a165627a7a723058202a7079ccf6e48b47c388bcc99b97449c3dcac26ad83968856cbcecaf7da45ea90029",
  "source": "pragma solidity ^0.4.18;\n\ncontract SocialProofs {\n  event ProofEvent(address indexed userAddress, bytes32 indexed platformName, bytes data);\n\n  function uploadProof(address userAddress, bytes32 platformName, bytes data) public {\n    ProofEvent(userAddress, platformName, data);\n  }\n}\n",
  "sourcePath": "/Users/howard/src/trustmesh/contracts/SocialProofs.sol",
  "compiler": {
    "name": "solc",
    "version": "0.4.19+commit.c4cbbb05.Emscripten.clang"
  },
  "schemaVersion": "2.0.0",
  "updatedAt": "2018-03-03T14:00:39.438Z"
}